:100000000C943E000C9448000C9448000C9448005A
:100010000C9448000C9448000C9448000C94480040
:100020000C9448000C9448000C9448000C94480030
:100030000C9448000C9448000C9448000C94480020
:100040000C9448000C9448000C9448000C94480010
:100050000C9448000C9448000C9448000C94480000
:100060000C9448000C9448000C9448000C944800F0
:100070000C9448000C9448000C94480011241FBEB6
:10008000CFEFD8E0DEBFCDBF0E944A000C94890AB2
:100090000C94000008E00EBF0FEF0DBFF89400E0D5
:1000A00010E021E030E0D1E0C0E0B1E0A0E00C2FB2
:1000B00000500993CF3FD9F7D830C9F7C0E0D1E05D
:1000C000F5E0E2E11E2E2F2E01E0502E80E090E0C0
:1000D00040E050E060E077E006E004B907E001B9F5
:1000E000002715B901E000005991652F6F70507F0E
:1000F000E50FF61F5295059002B80294599102B887
:10010000059002B80294E12DF22D02B86830652FF7
:1001100008F432B96F70507FE50FF61F059002B8F2
:100120000294599102B8059002B80294E12DF22D83
:1001300002B86830652F08F432B96F70507FE50F50
:10014000F61F059002B80294599102B8059002B8C2
:100150000294E12DF22D02B86830652F08F432B90F
:100160006F70507FE50FF61F059002B80294599109
:1001700002B8059002B80294E12DF22D02B8683061
:10018000652F08F432B96F70507FE50FF61F0590A8
:1001900002B80294599102B8059002B80294E12D78
:1001A000F22D02B86830652F08F432B96F70507FB5
:1001B000E50FF61F059002B80294599102B8059018
:1001C00002B80294E12DF22D02B86830652F08F4D0
:1001D00032B96F70507FE50FF61F059002B8029498
:1001E000599102B8059002B80294E12DF22D02B89F
:1001F0006830652F08F432B96F70507FE50FF61F35
:10020000059002B80294599102B8059002B8029480
:10021000E12DF22D02B86830652F08F432B96F7005
:10022000507FE50FF61F059002B80294599102B86D
:10023000059002B80294E12DF22D02B86830652FC6
:1002400008F432B96F70507FE50FF61F059002B8C1
:100250000294599102B8059002B80294E12DF22D52
:1002600002B86830652F08F432B96F70507FE50F1F
:10027000F61F059002B80294599102B8059002B891
:100280000294E12DF22D02B86830652F08F432B9DE
:100290006F70507FE50FF61F059002B802945991D8
:1002A00002B8059002B80294E12DF22D02B8683030
:1002B000652F08F432B96F70507FE50FF61F059077
:1002C00002B80294599102B8059002B80294E12D47
:1002D000F22D02B86830652F08F432B96F70507F84
:1002E000E50FF61F059002B80294599102B80590E7
:1002F00002B80294E12DF22D02B86830652F08F49F
:1003000032B96F70507FE50FF61F059002B8029466
:10031000599102B8059002B80294E12DF22D02B86D
:100320006830652F08F432B96F70507FE50FF61F03
:10033000059002B80294599102B8059002B802944F
:10034000E12DF22D02B86830652F000032B96F70D0
:10035000507FE50FF61F10980A9500301098D9F7D6
:10036000000000000196923091F48A3511F444E0C7
:1003700012C08E3511F4442710C0843781F48827C9
:10038000992702E0010F05B900000DE011C000003F
:10039000000000000000000000000000000000005D
:1003A000000002E0010F05B900000DE000000000B0
:1003B000662D00EF02B900E101B900B10074E1F56A
:1003C00000B1007831F4000000000000000009E0F6
:1003D00055C000B10072600F660F631F5394052D66
:1003E000083061F0662E00000000000000000000F0
:1003F00000EE02B900EF02B905E040C000E0502E67
:1004000062956F3F66246A3FD8F462956D93000051
:1004100000000000000000000000000000000000DC
:100420000000000000000000000008EE02B908EF24
:1004300002B9662700E026C0000000005524C6CFA0
:100440006C3F81F06A3F49F06E3F51F06B3F81F0A5
:100450006D3F89F0A0E0B1E0E6CF6D910000DFCF05
:100460006E91DECF50966C91A051B0406D93DACF73
:100470005096A07FD8CFA051B040D6CF0A9500307B
:10048000E9F7000071B900E0010F05B9000009E0CB
:10049000082F007E003031F1000000000000000055
:1004A0000000082F007E592F56950795C02FD52F95
:1004B00000E6C00FD31FE2E1F5E0082F0C7188942D
:1004C0000695E00FF31F2F2E1E2E02E3142F9230FD
:1004D00029F0000000000000000003CE893578F408
:1004E0000000FFCD092F0030E1F6C0E6D0E00000AB
:1004F000000000000000000000000000DCCF662DBE
:1005000015B902E310980A9500301098D9F771B91F
:1005100028CF0000000000000000000000000000E4
:10052000000070007000700070000000700000009B
:10053000000007070707000000000000000000009F
:1005400000000770777707700770777707700000F3
:10055000000070777707770770777077770700006C
:1005600000000770000700077000700007700000AF
:10057000000070000707070770000707777000008A
:10058000000070007000000000000000000000008B
:10059000000070000700070007000700700000005F
:1005A000000007007000700070007000070000007D
:1005B0000000707000077070000000000000000074
:1005C00000000000000070007707700000000000CD
:1005D00000000000000000000000700007000000A4
:1005E000000000000000000077070000000000008D
:1005F000000000000000000000007700770000000D
:100600000000007000070007700070000700000085
:100610000000700707700777777007707007000099
:100620000000000770070007000700077077000050
:100630000000700707700007700007007777000060
:100640000000700707700007007007707007000057
:1006500000000700077007707777007000700000D7
:100660000000777707000700777700707777000042
:100670000000707707007777077007707007000039
:100680000000777700700007700007000700000087
:1006900000007077077007707777077077070000A2
:1006A0000000700707700770777700707707000009
:1006B000000070007000000000007000700000007A
:1006C00000007000700000000000700007000000D3
:1006D0000000000000777000070070000077000045
:1006E000000000000000770700007707000000000E
:1006F000000000007700000700700007770000008E
:1007000000007007077000707007000070000000A4
:100710000000700707700777077707007007000071
:100720000000700707700770777707700770000088
:1007300000007707077077070770077077070000DA
:1007400000007077070007000700070070770000BF
:1007500000007707077007700770077077070000C1
:10076000000077770700770707000700777700001A
:1007700000007777070077070700070007000000F1
:100780000000707707000700077707707077000098
:1007900000000770077077777777077007700000A1
:1007A000000077077000700070007000770700008D
:1007B00000007777000700070007000777000000B8
:1007C000000007070707070777000707070700006C
:1007D0000000070007000700070007007777000008
:1007E00000000770777707700770077007700000C8
:1007F00000000770777007770770077007700000B8
:10080000000070070770077007700770700700001E
:1008100000007707077007707707070007000000E0
:100820000000700707700770077007777077000087
:100830000000770707700770770707070770000049
:1008400000007077070070070070007077070000E5
:1008500000007707700070007000700070000000EA
:1008600000000770077007700770077070070000BE
:1008700000000707070707070707070770000000C2
:100880000000077007700770077077770770000027
:1008900000000707070707077000070707070000A2
:1008A00000000707070707077000700070000000CE
:1008B000000077770070000770000700777700006E
:1008C000000077000700070007000700770000001E
:1008D00000000700700070000007000700700000B3
:1008E000000077007000700070007000770000005A
:1008F000000070000707000000000000000000007A
:1009000000000000000000000000000077770000F9
:100910000000070070000000000000000000000060
:10092000000000007007007070770770707700009B
:100930000000000007000700770707707707000036
:1009400000000000000070070700070070070000AB
:100950000000000000700070707707707077000072
:10096000000000007007077077770700700700002D
:100970000000000070070700770007000700000074
:10098000000000007007077077770070770700009D
:1009900000000000070007007707077007700000DD
:1009A0000000000070000000770070007707000072
:1009B00000000000700000007000700007000000E0
:1009C0000000000007007700070777000707000016
:1009D000000000000700070007000700770700007D
:1009E000000000000770777707700770077000003D
:1009F000000000000770777007770770077000002D
:100A00000000000070070770077007707007000093
:100A10000000000077070770770707000700000055
:100A2000000000007007070770070077000700004C
:100A3000000000000707770007000700070000001C
:100A40000000000070770700700700707707000053
:100A50000000000070007707700070000077000051
:100A60000000000007700770077007707007000033
:100A700000000000070707070707070770000000CE
:100A8000000000000770077007707777077000009C
:100A90000000000007700770700707700770000003
:100AA0000000000007700770707700707707000083
:100AB0000000000077770070000770007777000073
:100AC000000070077000070007007000700700004A
:100AD0000000700070007000700070007000000076
:100AE000000070070007007000700007700700002A
:100AF0000000707007070000000000000000000008
:100B00000000777777777777777777777777000051
:100B100000000000000000000000000000000000D5
:100B200000000000000000000000000000000000C5
:100B300000000000000000000000000000000000B5
:100B400000000000000000000000000000000000A5
:100B50000000000000000000000000000000000095
:100B60000000000000000000000000000000000085
:100B70000000000000000000000000000000000075
:100B80000000000000000000000000000000000065
:100B90000000000000000000000000000000000055
:100BA0000000000000000000000000000000000045
:100BB0000000000000000000000000000000000035
:100BC0000000000000000000000000000000000025
:100BD0000000000000000000000000000000000015
:100BE0000000000000000000000000000000000005
:100BF00000000000000000000000000000000000F5
:100C000000000000000000000000000000000000E4
:100C100000000700070007000700070007000700A3
:100C200007000070007000700070007000700070AD
:100C300000707777007000700070007000700070B6
:100C40000070007000700070007000700070007024
:100C500077770707707007077070070770700707CE
:100C600070700000000000000000000000000000A4
:100C70000000000000000000000000000000000074
:100C80000000000000000000000000000000000064
:100C90000000000000000000000000000000000054
:100CA0000000000000000000000000000000000044
:100CB0000000000000000000000000000000000034
:100CC0000000000000000000000000000000000024
:100CD0000000000000000000000000000000000014
:100CE0000000000000000000000000000000000004
:100CF00000000000000000000000000000000000F4
:100D000000000000000000000000000000000000E3
:100D100000007777000000000000000000000000E5
:100D200000000000000000000000000000000000C3
:100D300077777777070007000700070007000700AD
:100D4000070007000700070007000700070007006B
:100D500077770707707007077070070770700707CD
:100D600070700000000000000000000000000000A3
:100D70000000000000000000000000000000000073
:100D80000000000000000000000000000000000063
:100D90000000000000000000000000000000000053
:100DA0000000000000000000000000000000000043
:1013200000007707770777077707000000000000C5
:1013300000000070007000700070000000000000ED
:1013400000007777777777777777000000000000E5
:101350000000000000000000000077077707770713
:10136000770777077707770777077707770777078D
:1013700077070070007000700070770777077707B5
:1013800077077777777777777777770777077707AD
:10139000770700000000000000000070007000707F
:1013A0000070770777077707770700700070007085
:1013B00000700070007000700070007000700070AD
:1013C00000707777777777777777007000700070A5
:1013D00000700000000000000000777777777777D3
:1013E000777777077707770777077777777777774D
:1013F0007777007000700070007077777777777775
:10140000777777777777777777777777777777776C
:1014100077770000000000000000000000000000DE
:1014200000001111111111111111111111111111CE
:1014300011112222222222222222222222222222AE
:10144000222233333333333333333333333333338E
:10145000333344444444444444444444444444446E
:10146000444455555555555555555555555555554E
:10147000555566666666666666666666666666662E
:10148000666677777777777777777777777777770E
:10149000777700000000000000000000000000005E
:1014A000000000000000000000000000000000003C
:1014B000000000000000000000000000000000002C
:1014C000000000000000000000000000000000001C
:1014D000000000000000000000000000000000000C
:1014E00000000000000000000000000000000000FC
:1014F00000000000000000000000000000000000EC
:1015000000000000000000000000000000000000DB
:061510000000F894FFCF7B
:00000001FF
